{
  "_format": "hh-sol-artifact-1",
  "contractName": "FHECaro",
  "sourceName": "contracts/FHECaro.sol",
  "abi": [
    {
      "inputs": [
        {
          "internalType": "address",
          "name": "player",
          "type": "address"
        }
      ],
      "name": "getResultHistory",
      "outputs": [
        {
          "internalType": "euint32[]",
          "name": "",
          "type": "bytes32[]"
        }
      ],
      "stateMutability": "view",
      "type": "function"
    },
    {
      "inputs": [],
      "name": "protocolId",
      "outputs": [
        {
          "internalType": "uint256",
          "name": "",
          "type": "uint256"
        }
      ],
      "stateMutability": "pure",
      "type": "function"
    },
    {
      "inputs": [
        {
          "internalType": "externalEuint32",
          "name": "encryptedResult",
          "type": "bytes32"
        },
        {
          "internalType": "bytes",
          "name": "proof",
          "type": "bytes"
        }
      ],
      "name": "submitResult",
      "outputs": [],
      "stateMutability": "nonpayable",
      "type": "function"
    }
  ],
  "bytecode": "0x608060405234801561000f575f5ffd5b5061018a6100ae604080516080810182525f80825260208201819052918101829052606081019190915250604080516080810182527350157cffd6bbfa2dece204a89ec419c23ef5755d815273cd3ab3bd6bcc0c0bf3e27912a92043e817b1cf69602082015273a02cda4ca3a71d7c46997716f4283aa851c2881291810191909152731364cbbf2cdf5032c47d8226a6f6fbd2afcdacac606082015290565b80517f9e7b61f58c47dc699ac88507c4f5bb9f121c03808c5676a8078fe583e464970080546001600160a01b03199081166001600160a01b039384161790915560208301517f9e7b61f58c47dc699ac88507c4f5bb9f121c03808c5676a8078fe583e46497018054831691841691909117905560408301517f9e7b61f58c47dc699ac88507c4f5bb9f121c03808c5676a8078fe583e46497028054831691841691909117905560608301517f9e7b61f58c47dc699ac88507c4f5bb9f121c03808c5676a8078fe583e46497038054909216921691909117905550565b6104c1806101975f395ff3fe608060405234801561000f575f5ffd5b506004361061003f575f3560e01c80633c06b73514610043578063da1f12ab14610058578063ff2c767e1461006d575b5f5ffd5b61005661005136600461034f565b61008d565b005b60405161271181526020015b60405180910390f35b61008061007b3660046103c6565b61010a565b60405161006491906103ec565b5f6100cd8484848080601f0160208091040260200160405190810160405280939291908181526020018383808284375f9201919091525061017192505050565b90506100d881610185565b50335f8181526020818152604082208054600181018255908352912001829055610103908290610194565b5050505050565b6001600160a01b0381165f908152602081815260409182902080548351818402810184019094528084526060939283018282801561016557602002820191905f5260205f20905b815481526020019060010190808311610151575b50505050509050919050565b5f61017e838360046101a6565b9392505050565b5f61019082306102c6565b5090565b5f61019f83836102c6565b5090919050565b7f9e7b61f58c47dc699ac88507c4f5bb9f121c03808c5676a8078fe583e46497015460405163196d0b9b60e01b81525f917f9e7b61f58c47dc699ac88507c4f5bb9f121c03808c5676a8078fe583e4649700916001600160a01b039091169063196d0b9b9061021f90889033908990899060040161042e565b6020604051808303815f875af115801561023b573d5f5f3e3d5ffd5b505050506040513d601f19601f8201168201806040525081019061025f919061049d565b8154604051630f8e573b60e21b8152600481018390523360248201529193506001600160a01b031690633e395cec906044015f604051808303815f87803b1580156102a8575f5ffd5b505af11580156102ba573d5f5f3e3d5ffd5b50505050509392505050565b5f7f9e7b61f58c47dc699ac88507c4f5bb9f121c03808c5676a8078fe583e46497008054604051635ca4b5b160e11b8152600481018690526001600160a01b03858116602483015292935091169063b9496b62906044015f604051808303815f87803b158015610334575f5ffd5b505af1158015610346573d5f5f3e3d5ffd5b50505050505050565b5f5f5f60408486031215610361575f5ffd5b83359250602084013567ffffffffffffffff81111561037e575f5ffd5b8401601f8101861361038e575f5ffd5b803567ffffffffffffffff8111156103a4575f5ffd5b8660208284010111156103b5575f5ffd5b939660209190910195509293505050565b5f602082840312156103d6575f5ffd5b81356001600160a01b038116811461017e575f5ffd5b602080825282518282018190525f918401906040840190835b81811015610423578351835260209384019390920191600101610405565b509095945050505050565b8481526001600160a01b0384166020820152608060408201525f8351806080840152806020860160a085015e5f60a0828501015260a0601f19601f8301168401019150506054831061048e57634e487b7160e01b5f52602160045260245ffd5b82606083015295945050505050565b5f602082840312156104ad575f5ffd5b505191905056fea164736f6c634300081b000a",
  "linkReferences": {},
  "deployedLinkReferences": {}
}